{
  "contractName": "Advertise",
  "abi": [
    {
      "inputs": [],
      "stateMutability": "nonpayable",
      "type": "constructor"
    },
    {
      "inputs": [],
      "name": "advert",
      "outputs": [
        {
          "internalType": "string",
          "name": "",
          "type": "string"
        }
      ],
      "stateMutability": "view",
      "type": "function",
      "constant": true
    },
    {
      "inputs": [],
      "name": "owner",
      "outputs": [
        {
          "internalType": "address",
          "name": "",
          "type": "address"
        }
      ],
      "stateMutability": "view",
      "type": "function",
      "constant": true
    },
    {
      "inputs": [
        {
          "internalType": "string",
          "name": "too",
          "type": "string"
        }
      ],
      "name": "setadvert",
      "outputs": [],
      "stateMutability": "nonpayable",
      "type": "function"
    }
  ],
  "bytecode": "0x608060405234801561001057600080fd5b50336000806101000a81548173ffffffffffffffffffffffffffffffffffffffff021916908373ffffffffffffffffffffffffffffffffffffffff16021790555061049e806100606000396000f3fe608060405234801561001057600080fd5b50600436106100415760003560e01c80636d858831146100465780638da5cb5b14610064578063b70b9e0414610082575b600080fd5b61004e61009e565b60405161005b9190610353565b60405180910390f35b61006c61012c565b6040516100799190610338565b60405180910390f35b61009c600480360381019061009791906102ab565b610150565b005b600180546100ab906103f6565b80601f01602080910402602001604051908101604052809291908181526020018280546100d7906103f6565b80156101245780601f106100f957610100808354040283529160200191610124565b820191906000526020600020905b81548152906001019060200180831161010757829003601f168201915b505050505081565b60008054906101000a900473ffffffffffffffffffffffffffffffffffffffff1681565b60008054906101000a900473ffffffffffffffffffffffffffffffffffffffff1673ffffffffffffffffffffffffffffffffffffffff163373ffffffffffffffffffffffffffffffffffffffff16146101a857600080fd5b8181600191906101b99291906101be565b505050565b8280546101ca906103f6565b90600052602060002090601f0160209004810192826101ec5760008555610233565b82601f1061020557803560ff1916838001178555610233565b82800160010185558215610233579182015b82811115610232578235825591602001919060010190610217565b5b5090506102409190610244565b5090565b5b8082111561025d576000816000905550600101610245565b5090565b60008083601f84011261027357600080fd5b8235905067ffffffffffffffff81111561028c57600080fd5b6020830191508360018202830111156102a457600080fd5b9250929050565b600080602083850312156102be57600080fd5b600083013567ffffffffffffffff8111156102d857600080fd5b6102e485828601610261565b92509250509250929050565b6102f981610391565b82525050565b600061030a82610375565b6103148185610380565b93506103248185602086016103c3565b61032d81610457565b840191505092915050565b600060208201905061034d60008301846102f0565b92915050565b6000602082019050818103600083015261036d81846102ff565b905092915050565b600081519050919050565b600082825260208201905092915050565b600061039c826103a3565b9050919050565b600073ffffffffffffffffffffffffffffffffffffffff82169050919050565b60005b838110156103e15780820151818401526020810190506103c6565b838111156103f0576000848401525b50505050565b6000600282049050600182168061040e57607f821691505b6020821081141561042257610421610428565b5b50919050565b7f4e487b7100000000000000000000000000000000000000000000000000000000600052602260045260246000fd5b6000601f19601f830116905091905056fea264697066735822122024ee6df8339a646c8bb4c933800329217e0d8d195bcbd53c870ccd8c922881af64736f6c63430008000033",
  "immutableReferences": {},
  "source": "// SPDX-License-Identifier: MIT\npragma solidity ^0.8.0;\ncontract Advertise { \n\n\n    address public owner;\n    string public advert;\n\n    function setadvert(string calldata too) public{\n        require(msg.sender==owner);\n        advert=too;\n\n    }\n\n    constructor(){owner=msg.sender;}\n\n}\n",
  "sourcePath": "/home/psorus/q/c/06/contracts/Advertise.sol",
  "compiler": {
    "name": "solc",
    "version": "0.8.0+commit.c7dfd78e.Emscripten.clang"
  },
  "schemaVersion": "3.3.3",
  "updatedAt": "2021-01-27T17:11:39.326Z",
  "networkType": "ethereum",
  "devdoc": {
    "kind": "dev",
    "methods": {},
    "version": 1
  },
  "userdoc": {
    "kind": "user",
    "methods": {},
    "version": 1
  }
}