{
  "contractName": "MLB",
  "abi": [
    {
      "inputs": [],
      "stateMutability": "nonpayable",
      "type": "constructor"
    },
    {
      "anonymous": false,
      "inputs": [
        {
          "indexed": false,
          "internalType": "address",
          "name": "_who",
          "type": "address"
        },
        {
          "indexed": false,
          "internalType": "bytes32",
          "name": "_what",
          "type": "bytes32"
        }
      ],
      "name": "keylogger",
      "type": "event"
    },
    {
      "inputs": [
        {
          "internalType": "uint256",
          "name": "",
          "type": "uint256"
        }
      ],
      "name": "holder",
      "outputs": [
        {
          "internalType": "address",
          "name": "",
          "type": "address"
        }
      ],
      "stateMutability": "view",
      "type": "function",
      "constant": true
    },
    {
      "inputs": [
        {
          "internalType": "address",
          "name": "who",
          "type": "address"
        }
      ],
      "name": "is_holder",
      "outputs": [
        {
          "internalType": "bool",
          "name": "",
          "type": "bool"
        }
      ],
      "stateMutability": "view",
      "type": "function",
      "constant": true
    },
    {
      "inputs": [
        {
          "internalType": "address",
          "name": "who",
          "type": "address"
        }
      ],
      "name": "has_key_for",
      "outputs": [
        {
          "internalType": "bool",
          "name": "",
          "type": "bool"
        }
      ],
      "stateMutability": "view",
      "type": "function",
      "constant": true
    },
    {
      "inputs": [
        {
          "internalType": "address",
          "name": "who",
          "type": "address"
        }
      ],
      "name": "add_holder",
      "outputs": [
        {
          "internalType": "bool",
          "name": "",
          "type": "bool"
        }
      ],
      "stateMutability": "nonpayable",
      "type": "function"
    },
    {
      "inputs": [
        {
          "internalType": "bytes32",
          "name": "lock",
          "type": "bytes32"
        }
      ],
      "name": "openlock",
      "outputs": [
        {
          "internalType": "bool",
          "name": "",
          "type": "bool"
        }
      ],
      "stateMutability": "nonpayable",
      "type": "function"
    },
    {
      "inputs": [],
      "name": "lock_count",
      "outputs": [
        {
          "internalType": "uint256",
          "name": "",
          "type": "uint256"
        }
      ],
      "stateMutability": "view",
      "type": "function",
      "constant": true
    },
    {
      "inputs": [],
      "name": "missing_locks",
      "outputs": [
        {
          "internalType": "int256",
          "name": "",
          "type": "int256"
        }
      ],
      "stateMutability": "view",
      "type": "function",
      "constant": true
    }
  ],
  "bytecode": "0x608060405234801561001057600080fd5b5033600260006101000a81548173ffffffffffffffffffffffffffffffffffffffff021916908373ffffffffffffffffffffffffffffffffffffffff1602179055506109e0806100616000396000f3fe608060405234801561001057600080fd5b506004361061007d5760003560e01c8063782300d51161005b578063782300d5146101005780637a28e67f146101305780637d44e07c14610160578063ba899a2e1461017e5761007d565b8063170447b414610082578063293f2067146100b2578063727b2901146100d0575b600080fd5b61009c6004803603810190610097919061061c565b6101ae565b6040516100a991906107a6565b60405180910390f35b6100ba610213565b6040516100c7919061081c565b60405180910390f35b6100ea60048036038101906100e59190610645565b610220565b6040516100f791906107a6565b60405180910390f35b61011a6004803603810190610115919061061c565b610307565b60405161012791906107a6565b60405180910390f35b61014a6004803603810190610145919061061c565b6103da565b60405161015791906107a6565b60405180910390f35b6101686104f0565b60405161017591906107c1565b60405180910390f35b6101986004803603810190610193919061066e565b61059e565b6040516101a59190610762565b60405180910390f35b60006101b982610307565b6101c6576000905061020e565b6000801b6000808473ffffffffffffffffffffffffffffffffffffffff1673ffffffffffffffffffffffffffffffffffffffff16815260200190815260200160002054141590505b919050565b6000600180549050905090565b600061022b33610307565b61026a576040517f08c379a0000000000000000000000000000000000000000000000000000000008152600401610261906107dc565b60405180910390fd5b610273336101ae565b156102815760009050610302565b816000803373ffffffffffffffffffffffffffffffffffffffff1673ffffffffffffffffffffffffffffffffffffffff168152602001908152602001600020819055507f29a47b4eb453c6a0a7dd18174f52eef62014ff1dc8832f4b7cca6ab47687112e33836040516102f592919061077d565b60405180910390a1600190505b919050565b600080600090505b6001805490508110156103cf578273ffffffffffffffffffffffffffffffffffffffff166001828154811061036d577f4e487b7100000000000000000000000000000000000000000000000000000000600052603260045260246000fd5b9060005260206000200160009054906101000a900473ffffffffffffffffffffffffffffffffffffffff1673ffffffffffffffffffffffffffffffffffffffff1614156103be5760019150506103d5565b806103c8906108ed565b905061030f565b50600090505b919050565b6000600260009054906101000a900473ffffffffffffffffffffffffffffffffffffffff1673ffffffffffffffffffffffffffffffffffffffff163373ffffffffffffffffffffffffffffffffffffffff161461046c576040517f08c379a0000000000000000000000000000000000000000000000000000000008152600401610463906107fc565b60405180910390fd5b61047582610307565b1561048357600090506104eb565b6001829080600181540180825580915050600190039060005260206000200160009091909190916101000a81548173ffffffffffffffffffffffffffffffffffffffff021916908373ffffffffffffffffffffffffffffffffffffffff160217905550600190505b919050565b6000806000905060005b6001805490508110156105965761057460018281548110610544577f4e487b7100000000000000000000000000000000000000000000000000000000600052603260045260246000fd5b9060005260206000200160009054906101000a900473ffffffffffffffffffffffffffffffffffffffff166101ae565b6105855781610582906108a4565b91505b8061058f906108ed565b90506104fa565b508091505090565b600181815481106105ae57600080fd5b906000526020600020016000915054906101000a900473ffffffffffffffffffffffffffffffffffffffff1681565b6000813590506105ec81610965565b92915050565b6000813590506106018161097c565b92915050565b60008135905061061681610993565b92915050565b60006020828403121561062e57600080fd5b600061063c848285016105dd565b91505092915050565b60006020828403121561065757600080fd5b6000610665848285016105f2565b91505092915050565b60006020828403121561068057600080fd5b600061068e84828501610607565b91505092915050565b6106a081610848565b82525050565b6106af8161085a565b82525050565b6106be81610866565b82525050565b6106cd81610870565b82525050565b60006106e0601383610837565b91507f596f7520646f6e74206f776e2061206c6f636b000000000000000000000000006000830152602082019050919050565b6000610720601e83610837565b91507f596f7520617265206e6f7420616c6c6f77656420746f20646f207468697300006000830152602082019050919050565b61075c8161089a565b82525050565b60006020820190506107776000830184610697565b92915050565b60006040820190506107926000830185610697565b61079f60208301846106b5565b9392505050565b60006020820190506107bb60008301846106a6565b92915050565b60006020820190506107d660008301846106c4565b92915050565b600060208201905081810360008301526107f5816106d3565b9050919050565b6000602082019050818103600083015261081581610713565b9050919050565b60006020820190506108316000830184610753565b92915050565b600082825260208201905092915050565b60006108538261087a565b9050919050565b60008115159050919050565b6000819050919050565b6000819050919050565b600073ffffffffffffffffffffffffffffffffffffffff82169050919050565b6000819050919050565b60006108af82610870565b91507f7fffffffffffffffffffffffffffffffffffffffffffffffffffffffffffffff8214156108e2576108e1610936565b5b600182019050919050565b60006108f88261089a565b91507fffffffffffffffffffffffffffffffffffffffffffffffffffffffffffffffff82141561092b5761092a610936565b5b600182019050919050565b7f4e487b7100000000000000000000000000000000000000000000000000000000600052601160045260246000fd5b61096e81610848565b811461097957600080fd5b50565b61098581610866565b811461099057600080fd5b50565b61099c8161089a565b81146109a757600080fd5b5056fea2646970667358221220499964f093e7107ccc1e90fd440843dc2b9a602c753bdf29e05c51d61d40dc6a64736f6c63430008000033",
  "immutableReferences": {},
  "source": "// SPDX-License-Identifier: MIT\npragma solidity ^0.8.0;\ncontract MLB { //MultiLockedBox\n\n\n    mapping(address => bytes32) internal locks;\n    address[] public holder;\n    address creator;\n\n    event keylogger(address _who,bytes32 _what);\n    \n    constructor(){creator=msg.sender;}\n\n    function is_holder(address who) public view returns (bool){\n        for(uint i=0;i<holder.length;++i){\n            if(holder[i]==who){return true;}\n        }\n        return false;\n    }\n    function has_key_for(address who) public view returns (bool){\n        if(!is_holder(who)){return false;}\n        return locks[who]!=0;\n    }\n    function add_holder(address who) public returns (bool){\n        require(msg.sender==creator,\"You are not allowed to do this\");\n        if(is_holder(who)){return false;}\n        holder.push(who);\n        return true;\n    }\n\n    function openlock(bytes32 lock) public returns (bool){\n        require(is_holder(msg.sender),\"You dont own a lock\");\n        if(has_key_for(msg.sender)){return false;}\n        locks[msg.sender]=lock;\n        emit keylogger(msg.sender,lock);\n        return true;\n    }\n    \n    function lock_count() public view returns (uint){\n        return holder.length;\n    }\n\n    function missing_locks() public view returns (int){\n        int ret=0;\n        for(uint i=0;i<holder.length;++i){\n            if(!has_key_for(holder[i])){++ret;}\n        }\n        return ret;\n    }\n    /*function get_all_locks() public view returns (bytes32[] memory){\n        int constant lc=lock_count();\n        bytes32[lc] ret;\n        for(int i=0;i<holder.length;++i){\n            if(!has_key_for(holder[i])){ret[i]=locks[holder[i]];}\n        }\n        return ret;\n    }*/\n\n\n}\n",
  "sourcePath": "/home/psorus/q/c/07/contracts/MLB.sol",
  "compiler": {
    "name": "solc",
    "version": "0.8.0+commit.c7dfd78e.Emscripten.clang"
  },
  "schemaVersion": "3.3.3",
  "updatedAt": "2021-02-04T13:29:57.267Z",
  "networkType": "ethereum",
  "devdoc": {
    "kind": "dev",
    "methods": {},
    "version": 1
  },
  "userdoc": {
    "kind": "user",
    "methods": {},
    "version": 1
  }
}