{
  "contractName": "Notary",
  "abi": [
    {
      "inputs": [],
      "name": "key",
      "outputs": [
        {
          "internalType": "bytes32",
          "name": "",
          "type": "bytes32"
        }
      ],
      "stateMutability": "view",
      "type": "function",
      "constant": true
    },
    {
      "inputs": [],
      "name": "time",
      "outputs": [
        {
          "internalType": "uint256",
          "name": "",
          "type": "uint256"
        }
      ],
      "stateMutability": "view",
      "type": "function",
      "constant": true
    },
    {
      "inputs": [
        {
          "internalType": "bytes32",
          "name": "input",
          "type": "bytes32"
        }
      ],
      "name": "init",
      "outputs": [],
      "stateMutability": "nonpayable",
      "type": "function"
    }
  ],
  "bytecode": "0x608060405234801561001057600080fd5b506101bc806100206000396000f3fe608060405234801561001057600080fd5b50600436106100415760003560e01c806316ada547146100465780633943380c146100645780633b66319514610082575b600080fd5b61004e61009e565b60405161005b9190610140565b60405180910390f35b61006c6100a4565b6040516100799190610125565b60405180910390f35b61009c600480360381019061009791906100de565b6100aa565b005b60005481565b60015481565b60008054146100b857600080fd5b806001819055504260008190555050565b6000813590506100d88161016f565b92915050565b6000602082840312156100f057600080fd5b60006100fe848285016100c9565b91505092915050565b6101108161015b565b82525050565b61011f81610165565b82525050565b600060208201905061013a6000830184610107565b92915050565b60006020820190506101556000830184610116565b92915050565b6000819050919050565b6000819050919050565b6101788161015b565b811461018357600080fd5b5056fea26469706673582212202df6ebaf1ba5cb47fc9bdfd3dfbe889249f855bbfd7c4f28472219a7237995ae64736f6c63430008000033",
  "immutableReferences": {},
  "source": "// SPDX-License-Identifier: MIT\npragma solidity ^0.8.0;\ncontract Notary { \n\n\n\n    uint public time;\n    bytes32 public key;\n\n    function init(bytes32 input) public{\n        require(time==0);\n        key=input;\n        time=block.timestamp;\n\n    }\n\n\n}\n",
  "sourcePath": "/home/psorus/q/c/05/contracts/Notary.sol",
  "compiler": {
    "name": "solc",
    "version": "0.8.0+commit.c7dfd78e.Emscripten.clang"
  },
  "schemaVersion": "3.3.3",
  "updatedAt": "2021-01-26T18:11:39.274Z",
  "networkType": "ethereum",
  "devdoc": {
    "kind": "dev",
    "methods": {},
    "version": 1
  },
  "userdoc": {
    "kind": "user",
    "methods": {},
    "version": 1
  }
}