{
  "contractName": "Lookup",
  "abi": [
    {
      "inputs": [
        {
          "internalType": "bytes32",
          "name": "",
          "type": "bytes32"
        }
      ],
      "name": "register",
      "outputs": [
        {
          "internalType": "address payable",
          "name": "",
          "type": "address"
        }
      ],
      "stateMutability": "view",
      "type": "function",
      "constant": true
    },
    {
      "inputs": [
        {
          "internalType": "bytes32",
          "name": "where",
          "type": "bytes32"
        },
        {
          "internalType": "address payable",
          "name": "what",
          "type": "address"
        }
      ],
      "name": "def",
      "outputs": [],
      "stateMutability": "nonpayable",
      "type": "function"
    },
    {
      "inputs": [
        {
          "internalType": "bytes32",
          "name": "where",
          "type": "bytes32"
        }
      ],
      "name": "available",
      "outputs": [
        {
          "internalType": "bool",
          "name": "",
          "type": "bool"
        }
      ],
      "stateMutability": "view",
      "type": "function",
      "constant": true
    }
  ],
  "bytecode": "0x608060405234801561001057600080fd5b506103fc806100206000396000f3fe608060405234801561001057600080fd5b50600436106100415760003560e01c80636932854f146100465780638ecf98e914610076578063e1fa8e8414610092575b600080fd5b610060600480360381019061005b9190610226565b6100c2565b60405161006d9190610304565b60405180910390f35b610090600480360381019061008b919061024f565b61012c565b005b6100ac60048036038101906100a79190610226565b6101c9565b6040516100b991906102e9565b60405180910390f35b60008073ffffffffffffffffffffffffffffffffffffffff1660008084815260200190815260200160002060009054906101000a900473ffffffffffffffffffffffffffffffffffffffff1673ffffffffffffffffffffffffffffffffffffffff16149050919050565b610135826100c2565b610174576040517f08c379a000000000000000000000000000000000000000000000000000000000815260040161016b9061031f565b60405180910390fd5b8060008084815260200190815260200160002060006101000a81548173ffffffffffffffffffffffffffffffffffffffff021916908373ffffffffffffffffffffffffffffffffffffffff1602179055505050565b60006020528060005260406000206000915054906101000a900473ffffffffffffffffffffffffffffffffffffffff1681565b60008135905061020b81610398565b92915050565b600081359050610220816103af565b92915050565b60006020828403121561023857600080fd5b600061024684828501610211565b91505092915050565b6000806040838503121561026257600080fd5b600061027085828601610211565b9250506020610281858286016101fc565b9150509250929050565b61029481610350565b82525050565b6102a381610362565b82525050565b60006102b6601c8361033f565b91507f54686973204e616d6520697320616c726561647920646566696e6564000000006000830152602082019050919050565b60006020820190506102fe600083018461028b565b92915050565b6000602082019050610319600083018461029a565b92915050565b60006020820190508181036000830152610338816102a9565b9050919050565b600082825260208201905092915050565b600061035b82610378565b9050919050565b60008115159050919050565b6000819050919050565b600073ffffffffffffffffffffffffffffffffffffffff82169050919050565b6103a181610350565b81146103ac57600080fd5b50565b6103b88161036e565b81146103c357600080fd5b5056fea2646970667358221220e2b7957022e94a83213d12a0b63c54a509cba29aeac8cc2a2d9b7ffaa87a504364736f6c63430008000033",
  "immutableReferences": {},
  "source": "// SPDX-License-Identifier: MIT\npragma solidity ^0.8.0;\ncontract Lookup { \n\n\n\n    mapping (bytes32 => address payable) public register;\n\n    function def(bytes32 where,address payable what) public {\n        require(available(where),\"This Name is already defined\");\n        register[where]=what;\n    }\n    function available(bytes32 where) public view returns (bool) {\n        return register[where]==address(0);\n    }\n\n\n}\n",
  "sourcePath": "/home/psorus/q/crypto/cweb/sol/contracts/Lookup.sol",
  "compiler": {
    "name": "solc",
    "version": "0.8.0+commit.c7dfd78e.Emscripten.clang"
  },
  "schemaVersion": "3.3.3",
  "updatedAt": "2021-02-21T13:51:37.003Z",
  "networkType": "ethereum",
  "devdoc": {
    "kind": "dev",
    "methods": {},
    "version": 1
  },
  "userdoc": {
    "kind": "user",
    "methods": {},
    "version": 1
  }
}