{
  "contractName": "Page",
  "abi": [
    {
      "inputs": [],
      "stateMutability": "nonpayable",
      "type": "constructor"
    },
    {
      "inputs": [],
      "name": "content",
      "outputs": [
        {
          "internalType": "bytes",
          "name": "",
          "type": "bytes"
        }
      ],
      "stateMutability": "view",
      "type": "function",
      "constant": true
    },
    {
      "inputs": [],
      "name": "owner",
      "outputs": [
        {
          "internalType": "address payable",
          "name": "",
          "type": "address"
        }
      ],
      "stateMutability": "view",
      "type": "function",
      "constant": true
    },
    {
      "inputs": [
        {
          "internalType": "bytes",
          "name": "text",
          "type": "bytes"
        }
      ],
      "name": "update",
      "outputs": [],
      "stateMutability": "nonpayable",
      "type": "function"
    },
    {
      "inputs": [],
      "name": "tip",
      "outputs": [],
      "stateMutability": "payable",
      "type": "function",
      "payable": true
    },
    {
      "inputs": [],
      "name": "payout",
      "outputs": [
        {
          "internalType": "uint256",
          "name": "",
          "type": "uint256"
        }
      ],
      "stateMutability": "nonpayable",
      "type": "function"
    }
  ],
  "bytecode": "0x608060405234801561001057600080fd5b50336000806101000a81548173ffffffffffffffffffffffffffffffffffffffff021916908373ffffffffffffffffffffffffffffffffffffffff160217905550610777806100606000396000f3fe60806040526004361061004a5760003560e01c80632755cd2d1461004f57806363bd1d4a146100595780638a4d5a67146100845780638da5cb5b146100af578063c43ed2c8146100da575b600080fd5b610057610103565b005b34801561006557600080fd5b5061006e610148565b60405161007b9190610618565b60405180910390f35b34801561009057600080fd5b50610099610216565b6040516100a691906105b6565b60405180910390f35b3480156100bb57600080fd5b506100c46102a4565b6040516100d1919061059b565b60405180910390f35b3480156100e657600080fd5b5061010160048036038101906100fc9190610459565b6102c8565b005b60003411610146576040517f08c379a000000000000000000000000000000000000000000000000000000000815260040161013d906105f8565b60405180910390fd5b565b60008060009054906101000a900473ffffffffffffffffffffffffffffffffffffffff1673ffffffffffffffffffffffffffffffffffffffff163373ffffffffffffffffffffffffffffffffffffffff16146101a357600080fd5b600047905060008054906101000a900473ffffffffffffffffffffffffffffffffffffffff1673ffffffffffffffffffffffffffffffffffffffff166108fc829081150290604051600060405180830381858888f1935050505015801561020e573d6000803e3d6000fd5b508091505090565b60018054610223906106cf565b80601f016020809104026020016040519081016040528092919081815260200182805461024f906106cf565b801561029c5780601f106102715761010080835404028352916020019161029c565b820191906000526020600020905b81548152906001019060200180831161027f57829003601f168201915b505050505081565b60008054906101000a900473ffffffffffffffffffffffffffffffffffffffff1681565b60008054906101000a900473ffffffffffffffffffffffffffffffffffffffff1673ffffffffffffffffffffffffffffffffffffffff163373ffffffffffffffffffffffffffffffffffffffff1614610356576040517f08c379a000000000000000000000000000000000000000000000000000000000815260040161034d906105d8565b60405180910390fd5b81816001919061036792919061036c565b505050565b828054610378906106cf565b90600052602060002090601f01602090048101928261039a57600085556103e1565b82601f106103b357803560ff19168380011785556103e1565b828001600101855582156103e1579182015b828111156103e05782358255916020019190600101906103c5565b5b5090506103ee91906103f2565b5090565b5b8082111561040b5760008160009055506001016103f3565b5090565b60008083601f84011261042157600080fd5b8235905067ffffffffffffffff81111561043a57600080fd5b60208301915083600182028301111561045257600080fd5b9250929050565b6000806020838503121561046c57600080fd5b600083013567ffffffffffffffff81111561048657600080fd5b6104928582860161040f565b92509250509250929050565b6104a781610660565b82525050565b60006104b882610633565b6104c2818561063e565b93506104d281856020860161069c565b6104db81610730565b840191505092915050565b60006104f360328361064f565b91507f4f6e6c7920746865206f776e65722063616e206368616e67652074686520636f60008301527f6e74656e74206f662074686973207061676500000000000000000000000000006020830152604082019050919050565b6000610559601e8361064f565b91507f54697070696e6720757375616c6c7920696e766f6c766573206d6f6e657900006000830152602082019050919050565b61059581610692565b82525050565b60006020820190506105b0600083018461049e565b92915050565b600060208201905081810360008301526105d081846104ad565b905092915050565b600060208201905081810360008301526105f1816104e6565b9050919050565b600060208201905081810360008301526106118161054c565b9050919050565b600060208201905061062d600083018461058c565b92915050565b600081519050919050565b600082825260208201905092915050565b600082825260208201905092915050565b600061066b82610672565b9050919050565b600073ffffffffffffffffffffffffffffffffffffffff82169050919050565b6000819050919050565b60005b838110156106ba57808201518184015260208101905061069f565b838111156106c9576000848401525b50505050565b600060028204905060018216806106e757607f821691505b602082108114156106fb576106fa610701565b5b50919050565b7f4e487b7100000000000000000000000000000000000000000000000000000000600052602260045260246000fd5b6000601f19601f830116905091905056fea264697066735822122077a450fc328ab28e9b897ec5a91da1672b37479088ef71ed5fef26e275172c0464736f6c63430008000033",
  "immutableReferences": {},
  "source": "// SPDX-License-Identifier: MIT\npragma solidity ^0.8.0;\ncontract Page { \n\n\n\n    address payable public owner;\n    bytes public content;\n\n    function update(bytes calldata text) public {\n        require(msg.sender==owner,\"Only the owner can change the content of this page\");\n        content=text;\n    }\n    function tip() payable public {\n        require(msg.value>0,\"Tipping usually involves money\");\n\n    }\n    function payout() public returns (uint){\n        require(msg.sender==owner);\n        uint amount=address(this).balance;\n        owner.transfer(amount);\n        return amount;\n    }\n    constructor() { owner = payable(msg.sender); }\n\n\n}\n",
  "sourcePath": "/home/psorus/q/crypto/cweb/contracts/Page.sol",
  "compiler": {
    "name": "solc",
    "version": "0.8.0+commit.c7dfd78e.Emscripten.clang"
  },
  "schemaVersion": "3.3.3",
  "updatedAt": "2021-02-21T12:11:05.650Z",
  "networkType": "ethereum",
  "devdoc": {
    "kind": "dev",
    "methods": {},
    "version": 1
  },
  "userdoc": {
    "kind": "user",
    "methods": {},
    "version": 1
  }
}