{
  "contractName": "Scream",
  "abi": [
    {
      "anonymous": false,
      "inputs": [
        {
          "indexed": true,
          "internalType": "address",
          "name": "from",
          "type": "address"
        },
        {
          "indexed": false,
          "internalType": "uint256",
          "name": "value",
          "type": "uint256"
        }
      ],
      "name": "doo",
      "type": "event"
    },
    {
      "inputs": [
        {
          "internalType": "uint256",
          "name": "what",
          "type": "uint256"
        }
      ],
      "name": "run",
      "outputs": [],
      "stateMutability": "nonpayable",
      "type": "function"
    }
  ],
  "bytecode": "0x608060405234801561001057600080fd5b5061015c806100206000396000f3fe608060405234801561001057600080fd5b506004361061002b5760003560e01c8063a444f5e914610030575b600080fd5b61004a600480360381019061004591906100b2565b61004c565b005b3373ffffffffffffffffffffffffffffffffffffffff167fc401403da441e770801e7a4033c06bf4895a06591f9a93ccb8f037de2fbbad6c8260405161009291906100ea565b60405180910390a250565b6000813590506100ac8161010f565b92915050565b6000602082840312156100c457600080fd5b60006100d28482850161009d565b91505092915050565b6100e481610105565b82525050565b60006020820190506100ff60008301846100db565b92915050565b6000819050919050565b61011881610105565b811461012357600080fd5b5056fea2646970667358221220ae8f1adf812c631f81a51b168a223e74eef4bd213e15a74322b229eca874119b64736f6c63430008000033",
  "immutableReferences": {},
  "source": "// SPDX-License-Identifier: MIT\npragma solidity ^0.8.0;\ncontract Scream { \n\n    event doo(address indexed from,uint value);\n\n    function run(uint what) public {\n        emit doo (msg.sender,what);\n    }\n\n\n\n\n}\n",
  "sourcePath": "/home/psorus/q/c/05/contracts/Scream.sol",
  "compiler": {
    "name": "solc",
    "version": "0.8.0+commit.c7dfd78e.Emscripten.clang"
  },
  "schemaVersion": "3.3.3",
  "updatedAt": "2021-01-26T20:16:04.646Z",
  "networkType": "ethereum",
  "devdoc": {
    "kind": "dev",
    "methods": {},
    "version": 1
  },
  "userdoc": {
    "kind": "user",
    "methods": {},
    "version": 1
  }
}